{
  "contractName": "landToken",
  "abi": [
    {
      "inputs": [
        {
          "internalType": "string",
          "name": "name",
          "type": "string"
        },
        {
          "internalType": "string",
          "name": "symbol",
          "type": "string"
        }
      ],
      "stateMutability": "nonpayable",
      "type": "constructor"
    },
    {
      "anonymous": false,
      "inputs": [
        {
          "indexed": true,
          "internalType": "address",
          "name": "_owner",
          "type": "address"
        },
        {
          "indexed": false,
          "internalType": "uint256",
          "name": "_cost",
          "type": "uint256"
        },
        {
          "indexed": false,
          "internalType": "string",
          "name": "_location",
          "type": "string"
        },
        {
          "indexed": false,
          "internalType": "uint256",
          "name": "_tokenId",
          "type": "uint256"
        }
      ],
      "name": "AddLand",
      "type": "event"
    },
    {
      "anonymous": false,
      "inputs": [
        {
          "indexed": true,
          "internalType": "address",
          "name": "_owner",
          "type": "address"
        },
        {
          "indexed": true,
          "internalType": "address",
          "name": "_approved",
          "type": "address"
        },
        {
          "indexed": true,
          "internalType": "uint256",
          "name": "_tokenId",
          "type": "uint256"
        }
      ],
      "name": "Approval",
      "type": "event"
    },
    {
      "anonymous": false,
      "inputs": [
        {
          "indexed": true,
          "internalType": "address",
          "name": "_owner",
          "type": "address"
        },
        {
          "indexed": true,
          "internalType": "address",
          "name": "_operator",
          "type": "address"
        },
        {
          "indexed": false,
          "internalType": "bool",
          "name": "_approved",
          "type": "bool"
        }
      ],
      "name": "ApprovalForAll",
      "type": "event"
    },
    {
      "anonymous": false,
      "inputs": [
        {
          "indexed": true,
          "internalType": "address",
          "name": "_from",
          "type": "address"
        },
        {
          "indexed": true,
          "internalType": "address",
          "name": "_to",
          "type": "address"
        },
        {
          "indexed": true,
          "internalType": "uint256",
          "name": "_tokenId",
          "type": "uint256"
        }
      ],
      "name": "Transfer",
      "type": "event"
    },
    {
      "anonymous": false,
      "inputs": [
        {
          "indexed": true,
          "internalType": "address",
          "name": "_owner",
          "type": "address"
        },
        {
          "indexed": false,
          "internalType": "uint256",
          "name": "_tokenId",
          "type": "uint256"
        },
        {
          "indexed": true,
          "internalType": "address",
          "name": "_visiter",
          "type": "address"
        }
      ],
      "name": "VisitLand",
      "type": "event"
    },
    {
      "inputs": [
        {
          "internalType": "uint256",
          "name": "",
          "type": "uint256"
        }
      ],
      "name": "tokenCost",
      "outputs": [
        {
          "internalType": "uint256",
          "name": "",
          "type": "uint256"
        }
      ],
      "stateMutability": "view",
      "type": "function",
      "constant": true
    },
    {
      "inputs": [
        {
          "internalType": "uint256",
          "name": "",
          "type": "uint256"
        }
      ],
      "name": "tokenLocation",
      "outputs": [
        {
          "internalType": "string",
          "name": "",
          "type": "string"
        }
      ],
      "stateMutability": "view",
      "type": "function",
      "constant": true
    },
    {
      "inputs": [
        {
          "internalType": "address",
          "name": "",
          "type": "address"
        }
      ],
      "name": "visit",
      "outputs": [
        {
          "internalType": "uint256",
          "name": "",
          "type": "uint256"
        }
      ],
      "stateMutability": "view",
      "type": "function",
      "constant": true
    },
    {
      "inputs": [],
      "name": "getLandcount",
      "outputs": [
        {
          "internalType": "uint256",
          "name": "",
          "type": "uint256"
        }
      ],
      "stateMutability": "view",
      "type": "function",
      "constant": true
    },
    {
      "inputs": [
        {
          "internalType": "uint256",
          "name": "_tokenId",
          "type": "uint256"
        }
      ],
      "name": "getAvailability",
      "outputs": [
        {
          "internalType": "bool",
          "name": "",
          "type": "bool"
        }
      ],
      "stateMutability": "view",
      "type": "function",
      "constant": true
    },
    {
      "inputs": [
        {
          "internalType": "uint256",
          "name": "_tokenId",
          "type": "uint256"
        },
        {
          "internalType": "uint256",
          "name": "_cost",
          "type": "uint256"
        }
      ],
      "name": "setAvailability",
      "outputs": [],
      "stateMutability": "nonpayable",
      "type": "function"
    },
    {
      "inputs": [],
      "name": "name",
      "outputs": [
        {
          "internalType": "string",
          "name": "",
          "type": "string"
        }
      ],
      "stateMutability": "view",
      "type": "function",
      "constant": true
    },
    {
      "inputs": [],
      "name": "symbol",
      "outputs": [
        {
          "internalType": "string",
          "name": "",
          "type": "string"
        }
      ],
      "stateMutability": "view",
      "type": "function",
      "constant": true
    },
    {
      "inputs": [],
      "name": "totalSupply",
      "outputs": [
        {
          "internalType": "uint256",
          "name": "",
          "type": "uint256"
        }
      ],
      "stateMutability": "view",
      "type": "function",
      "constant": true
    },
    {
      "inputs": [
        {
          "internalType": "uint256",
          "name": "_tokenId",
          "type": "uint256"
        }
      ],
      "name": "visited",
      "outputs": [],
      "stateMutability": "nonpayable",
      "type": "function"
    },
    {
      "inputs": [
        {
          "internalType": "string",
          "name": "location",
          "type": "string"
        },
        {
          "internalType": "uint256",
          "name": "cost",
          "type": "uint256"
        }
      ],
      "name": "addLand",
      "outputs": [],
      "stateMutability": "nonpayable",
      "type": "function"
    },
    {
      "inputs": [
        {
          "internalType": "uint256",
          "name": "_tokenId",
          "type": "uint256"
        }
      ],
      "name": "buyLand",
      "outputs": [],
      "stateMutability": "payable",
      "type": "function",
      "payable": true
    },
    {
      "inputs": [
        {
          "internalType": "address payable",
          "name": "_from",
          "type": "address"
        },
        {
          "internalType": "address payable",
          "name": "_to",
          "type": "address"
        },
        {
          "internalType": "uint256",
          "name": "_tokenId",
          "type": "uint256"
        },
        {
          "internalType": "uint256",
          "name": "_amount",
          "type": "uint256"
        }
      ],
      "name": "TransferFrom",
      "outputs": [],
      "stateMutability": "payable",
      "type": "function",
      "payable": true
    },
    {
      "inputs": [
        {
          "internalType": "address",
          "name": "_owner",
          "type": "address"
        }
      ],
      "name": "balanceOf",
      "outputs": [
        {
          "internalType": "uint256",
          "name": "",
          "type": "uint256"
        }
      ],
      "stateMutability": "view",
      "type": "function",
      "constant": true
    },
    {
      "inputs": [
        {
          "internalType": "uint256",
          "name": "_tokenId",
          "type": "uint256"
        }
      ],
      "name": "ownerOf",
      "outputs": [
        {
          "internalType": "address",
          "name": "",
          "type": "address"
        }
      ],
      "stateMutability": "view",
      "type": "function",
      "constant": true
    },
    {
      "inputs": [
        {
          "internalType": "address",
          "name": "_owner",
          "type": "address"
        },
        {
          "internalType": "uint256",
          "name": "index",
          "type": "uint256"
        }
      ],
      "name": "tokenOfOwnerByIndex",
      "outputs": [
        {
          "internalType": "uint256",
          "name": "",
          "type": "uint256"
        }
      ],
      "stateMutability": "view",
      "type": "function",
      "constant": true
    },
    {
      "inputs": [
        {
          "internalType": "address payable",
          "name": "_from",
          "type": "address"
        },
        {
          "internalType": "address payable",
          "name": "_to",
          "type": "address"
        },
        {
          "internalType": "uint256",
          "name": "_tokenId",
          "type": "uint256"
        }
      ],
      "name": "safeTransferFrom",
      "outputs": [],
      "stateMutability": "payable",
      "type": "function",
      "payable": true
    },
    {
      "inputs": [
        {
          "internalType": "address",
          "name": "_owner",
          "type": "address"
        },
        {
          "internalType": "address",
          "name": "_operator",
          "type": "address"
        }
      ],
      "name": "isApprovedForAll",
      "outputs": [
        {
          "internalType": "bool",
          "name": "",
          "type": "bool"
        }
      ],
      "stateMutability": "view",
      "type": "function",
      "constant": true
    },
    {
      "inputs": [
        {
          "internalType": "address payable",
          "name": "_approved",
          "type": "address"
        },
        {
          "internalType": "uint256",
          "name": "_tokenId",
          "type": "uint256"
        }
      ],
      "name": "approve",
      "outputs": [],
      "stateMutability": "payable",
      "type": "function",
      "payable": true
    },
    {
      "inputs": [
        {
          "internalType": "uint256",
          "name": "_tokenId",
          "type": "uint256"
        }
      ],
      "name": "getApproved",
      "outputs": [
        {
          "internalType": "address",
          "name": "",
          "type": "address"
        }
      ],
      "stateMutability": "view",
      "type": "function",
      "constant": true
    },
    {
      "inputs": [
        {
          "internalType": "address",
          "name": "_operator",
          "type": "address"
        },
        {
          "internalType": "bool",
          "name": "_approved",
          "type": "bool"
        }
      ],
      "name": "setApprovalForAll",
      "outputs": [],
      "stateMutability": "nonpayable",
      "type": "function"
    },
    {
      "inputs": [],
      "name": "implode",
      "outputs": [],
      "stateMutability": "nonpayable",
      "type": "function"
    }
  ],
  "bytecode": "0x60806040526004805460ff191690553480156200001b57600080fd5b5060405162001e2838038062001e28833981810160405260408110156200004157600080fd5b81019080805160405193929190846401000000008211156200006257600080fd5b9083019060208201858111156200007857600080fd5b82516401000000008111828201881017156200009357600080fd5b82525081516020918201929091019080838360005b83811015620000c2578181015183820152602001620000a8565b50505050905090810190601f168015620000f05780820380516001836020036101000a031916815260200191505b50604052602001805160405193929190846401000000008211156200011457600080fd5b9083019060208201858111156200012a57600080fd5b82516401000000008111828201881017156200014557600080fd5b82525081516020918201929091019080838360005b83811015620001745781810151838201526020016200015a565b50505050905090810190601f168015620001a25780820380516001836020036101000a031916815260200191505b5060405250508251620001be91506002906020850190620001e5565b508051620001d4906003906020840190620001e5565b505060008080556001555062000281565b828054600181600116156101000203166002900490600052602060002090601f016020900481019282601f106200022857805160ff191683800117855562000258565b8280016001018555821562000258579182015b82811115620002585782518255916020019190600101906200023b565b50620002669291506200026a565b5090565b5b808211156200026657600081556001016200026b565b611b9780620002916000396000f3fe608060405260043610610152576000357c01000000000000000000000000000000000000000000000000000000009004806370a08231116100c8578063b88957211161008c578063b889572114610470578063cd6a8eca146104ac578063ced39558146104ea578063e6ed0fff14610507578063e985e9c5146105bc578063ed40b191146105f757610152565b806370a08231146103935780637d20b0bf146103c657806395d89b41146103f65780639fed62c11461040b578063a22cb4651461043557610152565b80632f745c591161011a5780632f745c5914610291578063370fa968146102ca5780633d8aa9b8146102f457806342842e0e146103095780635aed4f171461033f5780636352211e1461036957610152565b806306fdde0314610157578063081812fc146101e1578063095ea7b31461022757806318160ddd1461025557806325ca44cd1461027c575b600080fd5b34801561016357600080fd5b5061016c61062a565b6040805160208082528351818301528351919283929083019185019080838360005b838110156101a657818101518382015260200161018e565b50505050905090810190601f1680156101d35780820380516001836020036101000a031916815260200191505b509250505060405180910390f35b3480156101ed57600080fd5b5061020b6004803603602081101561020457600080fd5b5035610703565b60408051600160a060020a039092168252519081900360200190f35b6102536004803603604081101561023d57600080fd5b50600160a060020a03813516906020013561076b565b005b34801561026157600080fd5b5061026a610930565b60408051918252519081900360200190f35b34801561028857600080fd5b5061026a610983565b34801561029d57600080fd5b5061026a600480360360408110156102b457600080fd5b50600160a060020a038135169060200135610989565b3480156102d657600080fd5b50610253600480360360208110156102ed57600080fd5b5035610a5c565b34801561030057600080fd5b50610253610b74565b6102536004803603606081101561031f57600080fd5b50600160a060020a03813581169160208101359091169060400135610bcc565b34801561034b57600080fd5b5061016c6004803603602081101561036257600080fd5b5035610ee8565b34801561037557600080fd5b5061020b6004803603602081101561038c57600080fd5b5035610f83565b34801561039f57600080fd5b5061026a600480360360208110156103b657600080fd5b5035600160a060020a0316610feb565b3480156103d257600080fd5b50610253600480360360408110156103e957600080fd5b50803590602001356110b1565b34801561040257600080fd5b5061016c611146565b34801561041757600080fd5b5061026a6004803603602081101561042e57600080fd5b50356111ed565b34801561044157600080fd5b506102536004803603604081101561045857600080fd5b50600160a060020a03813516906020013515156111ff565b6102536004803603608081101561048657600080fd5b50600160a060020a03813581169160208101359091169060408101359060600135611317565b3480156104b857600080fd5b506104d6600480360360208110156104cf57600080fd5b5035611611565b604080519115158252519081900360200190f35b6102536004803603602081101561050057600080fd5b5035611626565b34801561051357600080fd5b506102536004803603604081101561052a57600080fd5b81019060208101813564010000000081111561054557600080fd5b82018360208201111561055757600080fd5b8035906020019184600183028401116401000000008311171561057957600080fd5b91908080601f01602080910402602001604051908101604052809392919081815260200183838082843760009201919091525092955050913592506117c0915050565b3480156105c857600080fd5b506104d6600480360360408110156105df57600080fd5b50600160a060020a0381358116916020013516611976565b34801561060357600080fd5b5061026a6004803603602081101561061a57600080fd5b5035600160a060020a03166119f1565b60045460609060ff1615610676576040805160e560020a62461bcd0281526020600482015260126024820152600080516020611abf833981519152604482015290519081900360640190fd5b6002805460408051602060018416156101000260001901909316849004601f810184900484028201840190925281815292918301828280156106f95780601f106106ce576101008083540402835291602001916106f9565b820191906000526020600020905b8154815290600101906020018083116106dc57829003601f168201915b5050505050905090565b60045460009060ff161561074f576040805160e560020a62461bcd0281526020600482015260126024820152600080516020611abf833981519152604482015290519081900360640190fd5b506000908152600a6020526040902054600160a060020a031690565b60045460ff16156107b4576040805160e560020a62461bcd0281526020600482015260126024820152600080516020611abf833981519152604482015290519081900360640190fd5b600081815260096020526040902054600160a060020a0383811691161415610826576040805160e560020a62461bcd02815260206004820152601960248201527f417070726f76616c20746f2063757272656e74206f776e657200000000000000604482015290519081900360640190fd5b600081815260096020526040902054600160a060020a0316331480610868575060008181526009602052604090205461086890600160a060020a031633611976565b6108bc576040805160e560020a62461bcd02815260206004820181905260248201527f43616e6e6f742062652063616c6c656420627920746869732061646472657373604482015290519081900360640190fd5b6000818152600a60209081526040808320805473ffffffffffffffffffffffffffffffffffffffff1916600160a060020a038781169182179092556009909352818420549151859492909116917f8c5be1e5ebec7d5bd14f71427d1e84f3dd0314c0f7b2291e5b200ac8c7c3b92591a45050565b60045460009060ff161561097c576040805160e560020a62461bcd0281526020600482015260126024820152600080516020611abf833981519152604482015290519081900360640190fd5b5060005490565b60015490565b60045460009060ff16156109d5576040805160e560020a62461bcd0281526020600482015260126024820152600080516020611abf833981519152604482015290519081900360640190fd5b600160a060020a038316610a33576040805160e560020a62461bcd02815260206004820152601260248201527f4f776e6572206e6f6e206578697374616e740000000000000000000000000000604482015290519081900360640190fd5b50600160a060020a03919091166000908152600860209081526040808320938352929052205490565b60045460ff1615610aa5576040805160e560020a62461bcd0281526020600482015260126024820152600080516020611abf833981519152604482015290519081900360640190fd5b600081815260096020526040902054600160a060020a0316331415610b14576040805160e560020a62461bcd02815260206004820152601f60248201527f53656e64657220697320746865204f776e6572206f6620746865206c616e6400604482015290519081900360640190fd5b336000818152600c6020908152604080832085905584835260098252918290205482518581529251600160a060020a03909116927f1e665d4e5ce7b049903db1456e42f1f6ae7bd0324b6217b037113e67ef98f41592908290030190a350565b60045460ff1615610bbd576040805160e560020a62461bcd0281526020600482015260126024820152600080516020611abf833981519152604482015290519081900360640190fd5b6004805460ff19166001179055565b60045460ff1615610c15576040805160e560020a62461bcd0281526020600482015260126024820152600080516020611abf833981519152604482015290519081900360640190fd5b600081815260096020526040902054600160a060020a03848116911614610c705760405160e560020a62461bcd028152600401808060200182810382526021815260200180611b1b6021913960400191505060405180910390fd5b33600160a060020a0384161480610c8c5750610c8c8333611976565b610cca5760405160e560020a62461bcd02815260040180806020018281038252603c815260200180611adf603c913960400191505060405180910390fd5b600160a060020a038216610d28576040805160e560020a62461bcd02815260206004820152601260248201527f4275796572206e6f6e206578697374616e740000000000000000000000000000604482015290519081900360640190fd5b600160a060020a0383166000818152600860209081526040808320858452825280832054938352600590915290205460011015610df757600160a060020a038416600090815260056020526040812080546000198101908110610d8757fe5b90600052602060002001549050806005600087600160a060020a0316600160a060020a031681526020019081526020016000208381548110610dc557fe5b6000918252602080832090910192909255600160a060020a038716815260088252604080822093825292909152208190555b600160a060020a0384166000908152600560205260409020805480610e1857fe5b600082815260208082206000199084018101839055928301909355600160a060020a0387811680835260088086526040808520898652875280852085905560098752808520805473ffffffffffffffffffffffffffffffffffffffff1916948b169485179055838552600587528085208054600181018255818752888720018a905584865254918752808520898652909652858420940193849055935192938693919290917fddf252ad1be2c89b69c2b068fc378daa952ba7f163c4a11628f55a4df523b3ef9190a45050505050565b60076020908152600091825260409182902080548351601f600260001961010060018616150201909316929092049182018490048402810184019094528084529091830182828015610f7b5780601f10610f5057610100808354040283529160200191610f7b565b820191906000526020600020905b815481529060010190602001808311610f5e57829003601f168201915b505050505081565b60045460009060ff1615610fcf576040805160e560020a62461bcd0281526020600482015260126024820152600080516020611abf833981519152604482015290519081900360640190fd5b50600090815260096020526040902054600160a060020a031690565b60045460009060ff1615611037576040805160e560020a62461bcd0281526020600482015260126024820152600080516020611abf833981519152604482015290519081900360640190fd5b600160a060020a038216611095576040805160e560020a62461bcd02815260206004820152601260248201527f4f776e6572206e6f6e206578697374616e740000000000000000000000000000604482015290519081900360640190fd5b50600160a060020a031660009081526005602052604090205490565b600082815260096020526040902054600160a060020a0316331461111f576040805160e560020a62461bcd02815260206004820152601a60248201527f596f7572206e6f7420746865206f776e6572206f66206c616e64000000000000604482015290519081900360640190fd5b6000918252600d60209081526040808420805460ff19166001179055600690915290912055565b60045460609060ff1615611192576040805160e560020a62461bcd0281526020600482015260126024820152600080516020611abf833981519152604482015290519081900360640190fd5b6003805460408051602060026001851615610100026000190190941693909304601f810184900484028201840190925281815292918301828280156106f95780601f106106ce576101008083540402835291602001916106f9565b60066020526000908152604090205481565b60045460ff1615611248576040805160e560020a62461bcd0281526020600482015260126024820152600080516020611abf833981519152604482015290519081900360640190fd5b600160a060020a0382163314156112a9576040805160e560020a62461bcd02815260206004820152601960248201527f43616c6c65722063616e6e6f7420626520617070726f76656400000000000000604482015290519081900360640190fd5b336000818152600b60209081526040808320600160a060020a03871680855290835292819020805460ff1916861515908117909155815190815290519293927f17307eab39ab6107e8899845ad3d59bd9653f200f220920489ca2b5937696c31929181900390910190a35050565b60045460ff1615611360576040805160e560020a62461bcd0281526020600482015260126024820152600080516020611abf833981519152604482015290519081900360640190fd5b600082815260096020526040902054600160a060020a038581169116146113bb5760405160e560020a62461bcd028152600401808060200182810382526021815260200180611b1b6021913960400191505060405180910390fd5b600160a060020a038316611419576040805160e560020a62461bcd02815260206004820152601260248201527f4275796572206e6f6e206578697374616e740000000000000000000000000000604482015290519081900360640190fd5b604051600160a060020a0385169082156108fc029083906000818181858888f1935050505015801561144f573d6000803e3d6000fd5b50600160a060020a038416600081815260086020908152604080832086845282528083205493835260059091529020546001101561151f57600160a060020a0385166000908152600560205260408120805460001981019081106114af57fe5b90600052602060002001549050806005600088600160a060020a0316600160a060020a0316815260200190815260200160002083815481106114ed57fe5b6000918252602080832090910192909255600160a060020a038816815260088252604080822093825292909152208190555b600160a060020a038516600090815260056020526040902080548061154057fe5b600082815260208082206000199084018101839055928301909355600160a060020a03888116808352600880865260408085208a8652875280852085905560098752808520805473ffffffffffffffffffffffffffffffffffffffff1916948c169485179055838552600587528085208054600181018255818752888720018b9055848652549187528085208a8652909652858420940193849055935192938793919290917fddf252ad1be2c89b69c2b068fc378daa952ba7f163c4a11628f55a4df523b3ef9190a4505050505050565b6000908152600d602052604090205460ff1690565b60045460ff161561166f576040805160e560020a62461bcd0281526020600482015260126024820152600080516020611abf833981519152604482015290519081900360640190fd5b6000818152600d602052604090205460ff1615156001146116da576040805160e560020a62461bcd02815260206004820152601b60248201527f4c616e64206e6f7420617661696c61626c6520666f722073616c650000000000604482015290519081900360640190fd5b336000908152600c6020526040902054811461172a5760405160e560020a62461bcd028152600401808060200182810382526026815260200180611b3c6026913960400191505060405180910390fd5b600081815260066020526040902054670de0b6b3a7640000023410156117845760405160e560020a62461bcd028152600401808060200182810382526028815260200180611a976028913960400191505060405180910390fd5b6000818152600960205260409020546117a890600160a060020a0316338334611317565b6000908152600d60205260409020805460ff19169055565b60045460ff1615611809576040805160e560020a62461bcd0281526020600482015260126024820152600080516020611abf833981519152604482015290519081900360640190fd5b60018054810180825560009081526006602090815260408083208590559254825260078152919020835161183f92850190611a03565b50600180546000908152600960209081526040808320805473ffffffffffffffffffffffffffffffffffffffff19163390811790915580845260058352818420855481548088018355828752858720015585548552600d8452828520805460ff1916871790558185525460088452828520865486528452828520819055845486018555945482518781529283018190526060838501818152895191850191909152885192957f0580bdf8116e9a7de129c129e277d28599c704a8d047b0d84fb3b78fdf29db469589958b959093926080850192870191908190849084905b8381101561193557818101518382015260200161191d565b50505050905090810190601f1680156119625780820380516001836020036101000a031916815260200191505b5094505050505060405180910390a2505050565b60045460009060ff16156119c2576040805160e560020a62461bcd0281526020600482015260126024820152600080516020611abf833981519152604482015290519081900360640190fd5b50600160a060020a039182166000908152600b6020908152604080832093909416825291909152205460ff1690565b600c6020526000908152604090205481565b828054600181600116156101000203166002900490600052602060002090601f016020900481019282601f10611a4457805160ff1916838001178555611a71565b82800160010185558215611a71579182015b82811115611a71578251825591602001919060010190611a56565b50611a7d929150611a81565b5090565b5b80821115611a7d5760008155600101611a8256fe4469646e27742073656e6420656e6f756768206d6f6e657920746f2062757420746865206c616e64436f6e74726163742064657374726f79656400000000000000000000000000004861766520746f20626520746865206f776e6572206f7220617070726f766572206f6620746865206c616e6420746f20706572666f726d20746869735468652073656c6c657220646f65736e2774206f776e207468697320746f6b656e506c6561736520766973697420746865204c616e64206265666f726520627579696e67206974a264697066735822122062412eea4394a3f8c023467d7a277a07ded2bf5d025b1c155da369eb19f3e5b264736f6c634300060c0033",
  "immutableReferences": {},
  "source": "pragma solidity 0.6.12;\r\n\r\ncontract landToken {\r\n\t\r\n\tuint _totalSupply;\r\n\tuint tokenId;\r\n\tstring private _name;\r\n\tstring private _symbol;\r\n\tbool private destructed = false;\r\n\t\r\n\tmodifier alive {\r\n\t    require(!destructed,\"Contract destroyed\");\r\n        _;\r\n\t}\r\n\r\n\tmapping (address => uint[]) private ownerTokens;\r\n\tmapping (uint => uint) public tokenCost;\r\n\tmapping (uint => string) public tokenLocation;\r\n\tmapping (address => mapping (uint => uint)) private ownerTokenIndex; //check\r\n\tmapping (uint => address payable) private tokenOwner; //check\r\n\tmapping (uint => address payable) private tokenApproval; //check\r\n\tmapping (address => mapping (address => bool)) private operatorApproval;\r\n\tmapping (address => uint) public visit;\r\n\r\n\tevent Transfer (address indexed _from, address indexed _to, uint  indexed _tokenId);\r\n\tevent Approval (address indexed _owner, address indexed _approved, uint indexed _tokenId);\r\n\tevent ApprovalForAll (address indexed _owner, address indexed _operator, bool _approved);\r\n\tevent AddLand (address indexed _owner, uint _cost, string _location, uint _tokenId);\r\n\tevent VisitLand (address indexed _owner, uint _tokenId, address indexed _visiter);\r\n\t\r\n\tmapping (uint => bool) private isAvailable;\r\n\t//uint[] private tokenIds;\r\n\r\n\tfunction getLandcount() public view returns(uint){\r\n\t    return tokenId;\r\n\t}\r\n\tfunction getAvailability(uint _tokenId) public view  returns(bool) {\r\n        return isAvailable[_tokenId];\r\n    }\r\n    \r\n    function setAvailability(uint _tokenId, uint _cost) public {\r\n        require(msg.sender == tokenOwner[_tokenId], \"Your not the owner of land\" );\r\n        isAvailable[_tokenId]=true;\r\n        tokenCost[_tokenId]=_cost;\r\n    }\r\n\r\n\tconstructor (string memory name, string memory symbol) public {\r\n\t\t_name = name;\r\n\t\t_symbol = symbol;\r\n\t\t_totalSupply = 0;\r\n\t\ttokenId = 0;\r\n\t}\r\n\r\n\tfunction name() alive public view  returns (string memory) {\r\n        return _name;\r\n    }\r\n\r\n    function symbol() alive public view  returns (string memory) {\r\n        return _symbol;\r\n    }\r\n\r\n\tfunction totalSupply() alive public view returns (uint) {\r\n\t\treturn _totalSupply;\r\n\t}\r\n\r\n\tfunction visited(uint _tokenId) alive public {\r\n\t\trequire (msg.sender != tokenOwner[_tokenId], \"Sender is the Owner of the land\");\r\n\t\tvisit[msg.sender] = _tokenId;\r\n\t\temit VisitLand (tokenOwner[_tokenId], _tokenId, msg.sender);\r\n\t}\r\n\t\r\n\tfunction addLand (string memory location, uint cost) alive public {\r\n\t\ttokenId++;\r\n\t    tokenCost[tokenId] = cost;\r\n\t    tokenLocation[tokenId] = location;\r\n\t    tokenOwner[tokenId] = msg.sender;\r\n        ownerTokens[msg.sender].push(tokenId);\r\n        \r\n        //tokenIds.push(tokenId);\r\n        isAvailable[tokenId]=true;\r\n        \r\n        uint indexNew = ownerTokens[msg.sender].length;\r\n        ownerTokenIndex[msg.sender][tokenId] = indexNew;\r\n        //tokenId++;\r\n        _totalSupply++;\r\n        emit AddLand (msg.sender, cost, location, tokenId);\r\n\t}\r\n\t\r\n\tfunction buyLand (uint _tokenId) alive public payable {\r\n\t    \r\n\t    require(isAvailable[_tokenId]==true, \"Land not available for sale\");\r\n\t    \r\n\t\trequire(visit[msg.sender] == _tokenId, \"Please visit the Land before buying it\");\r\n\t    require(msg.value >= tokenCost[_tokenId]*(10**18), \"Didn't send enough money to but the land\");\r\n\t    TransferFrom(tokenOwner[_tokenId], msg.sender, _tokenId, msg.value);\r\n\t    \r\n\t    isAvailable[_tokenId]=false;\r\n\t}\r\n\t\r\n\tfunction TransferFrom (address payable _from, address payable _to, uint _tokenId, uint _amount) alive public payable{\r\n\t    require(tokenOwner[_tokenId] == _from, \"The seller doesn't own this token\");\r\n        require(_to != address(0), \"Buyer non existant\");\r\n        \r\n        _from.transfer(_amount);\r\n        \r\n        uint index = ownerTokenIndex[_from][_tokenId];\r\n        if(ownerTokens[_from].length>1){\r\n            uint lastToken = ownerTokens[_from][ownerTokens[_from].length-1];   \r\n            ownerTokens[_from][index] = lastToken;\r\n            ownerTokenIndex[_from][lastToken] = index;\r\n        }\r\n        \r\n        ownerTokens[_from].pop();\r\n        delete ownerTokenIndex[_from][_tokenId];\r\n        delete tokenOwner[_tokenId];\r\n        \r\n        tokenOwner[_tokenId] = _to;\r\n        ownerTokens[_to].push(_tokenId);\r\n        uint indexNew = ownerTokens[_to].length-1;\r\n        ownerTokenIndex[_to][_tokenId] = indexNew;\r\n        \r\n        emit Transfer(_from, _to, _tokenId);\r\n\t}\r\n\r\n\tfunction balanceOf (address _owner) alive external view returns (uint) {\r\n\t\trequire(_owner != address(0), \"Owner non existant\");\r\n\t\treturn ownerTokens[_owner].length;\r\n\t}\r\n\r\n\tfunction ownerOf (uint _tokenId) alive external view returns (address) {\r\n\t\treturn tokenOwner[_tokenId];\r\n\t}\r\n\r\n\tfunction tokenOfOwnerByIndex (address _owner, uint index) alive public view returns (uint) {\r\n\t    require(_owner != address(0), \"Owner non existant\");\r\n\t\treturn ownerTokenIndex[_owner][index];\r\n\t}\r\n\r\n\tfunction safeTransferFrom (address payable _from, address payable _to, uint _tokenId) alive public payable{\r\n\t    require(tokenOwner[_tokenId] == _from, \"The seller doesn't own this token\");\r\n        require(msg.sender == _from || isApprovedForAll(_from, msg.sender), \"Have to be the owner or approver of the land to perform this\");\r\n        require(_to != address(0), \"Buyer non existant\");\r\n        \r\n        uint index = ownerTokenIndex[_from][_tokenId];\r\n        if(ownerTokens[_from].length>1){\r\n            uint lastToken = ownerTokens[_from][ownerTokens[_from].length-1];   \r\n            ownerTokens[_from][index] = lastToken;\r\n            ownerTokenIndex[_from][lastToken] = index;\r\n        }\r\n        \r\n        ownerTokens[_from].pop();\r\n        delete ownerTokenIndex[_from][_tokenId];\r\n        delete tokenOwner[_tokenId];\r\n        \r\n        tokenOwner[_tokenId] = _to;\r\n        ownerTokens[_to].push(_tokenId);\r\n        uint indexNew = ownerTokens[_to].length-1;\r\n        ownerTokenIndex[_to][_tokenId] = indexNew;\r\n        \r\n        emit Transfer(_from, _to, _tokenId);\r\n\t}\r\n\t\r\n\tfunction isApprovedForAll(address _owner, address _operator) alive public view returns(bool) {\r\n\t    return operatorApproval[_owner][_operator];\r\n\t}\r\n\t\r\n\tfunction approve (address payable _approved, uint _tokenId) alive external payable {\r\n\t    require(_approved != tokenOwner[_tokenId], \"Approval to current owner\");\r\n\t    require(msg.sender == tokenOwner[_tokenId] || isApprovedForAll(tokenOwner[_tokenId], msg.sender), \"Cannot be called by this address\");\r\n\t    \r\n\t    tokenApproval[_tokenId] = _approved;\r\n\t    emit Approval (tokenOwner[_tokenId], _approved, _tokenId);\r\n\t}\r\n\t\r\n\tfunction getApproved (uint _tokenId) alive external view returns (address) {\r\n\t    return tokenApproval[_tokenId];\r\n\t}\r\n\r\n    function setApprovalForAll (address _operator, bool _approved) alive external {\r\n        require(_operator != msg.sender, \"Caller cannot be approved\");\r\n        operatorApproval[msg.sender][_operator] = _approved;\r\n        emit ApprovalForAll(msg.sender, _operator, _approved);\r\n    }\r\n    \r\n    function implode() alive  public {\r\n        destructed = true;\r\n    }\r\n\t\r\n}",
  "sourcePath": "F:/emurgo_eth/project/DeLand/smart-contract/contracts/landToken.sol",
  "compiler": {
    "name": "solc",
    "version": "0.6.12+commit.27d51765.Emscripten.clang"
  },
  "schemaVersion": "3.2.3",
  "updatedAt": "2020-10-16T04:24:05.256Z",
  "networkType": "ethereum",
  "devdoc": {
    "kind": "dev",
    "methods": {},
    "version": 1
  },
  "userdoc": {
    "kind": "user",
    "methods": {},
    "version": 1
  }
}